{
  "_format": "hh-sol-artifact-1",
  "contractName": "Domains",
  "sourceName": "contracts/Domains.sol",
  "abi": [
    {
      "inputs": [
        {
          "internalType": "string",
          "name": "_tld",
          "type": "string"
        }
      ],
      "stateMutability": "payable",
      "type": "constructor"
    },
    {
      "inputs": [],
      "name": "AlreadyRegistered",
      "type": "error"
    },
    {
      "inputs": [
        {
          "internalType": "string",
          "name": "name",
          "type": "string"
        }
      ],
      "name": "InvalidName",
      "type": "error"
    },
    {
      "inputs": [],
      "name": "Unauthorized",
      "type": "error"
    },
    {
      "anonymous": false,
      "inputs": [
        {
          "indexed": true,
          "internalType": "address",
          "name": "owner",
          "type": "address"
        },
        {
          "indexed": true,
          "internalType": "address",
          "name": "approved",
          "type": "address"
        },
        {
          "indexed": true,
          "internalType": "uint256",
          "name": "tokenId",
          "type": "uint256"
        }
      ],
      "name": "Approval",
      "type": "event"
    },
    {
      "anonymous": false,
      "inputs": [
        {
          "indexed": true,
          "internalType": "address",
          "name": "owner",
          "type": "address"
        },
        {
          "indexed": true,
          "internalType": "address",
          "name": "operator",
          "type": "address"
        },
        {
          "indexed": false,
          "internalType": "bool",
          "name": "approved",
          "type": "bool"
        }
      ],
      "name": "ApprovalForAll",
      "type": "event"
    },
    {
      "anonymous": false,
      "inputs": [
        {
          "indexed": true,
          "internalType": "address",
          "name": "from",
          "type": "address"
        },
        {
          "indexed": true,
          "internalType": "address",
          "name": "to",
          "type": "address"
        },
        {
          "indexed": true,
          "internalType": "uint256",
          "name": "tokenId",
          "type": "uint256"
        }
      ],
      "name": "Transfer",
      "type": "event"
    },
    {
      "inputs": [
        {
          "internalType": "address",
          "name": "to",
          "type": "address"
        },
        {
          "internalType": "uint256",
          "name": "tokenId",
          "type": "uint256"
        }
      ],
      "name": "approve",
      "outputs": [],
      "stateMutability": "nonpayable",
      "type": "function"
    },
    {
      "inputs": [
        {
          "internalType": "address",
          "name": "owner",
          "type": "address"
        }
      ],
      "name": "balanceOf",
      "outputs": [
        {
          "internalType": "uint256",
          "name": "",
          "type": "uint256"
        }
      ],
      "stateMutability": "view",
      "type": "function"
    },
    {
      "inputs": [
        {
          "internalType": "string",
          "name": "",
          "type": "string"
        }
      ],
      "name": "domains",
      "outputs": [
        {
          "internalType": "address",
          "name": "",
          "type": "address"
        }
      ],
      "stateMutability": "view",
      "type": "function"
    },
    {
      "inputs": [
        {
          "internalType": "string",
          "name": "name",
          "type": "string"
        }
      ],
      "name": "getAddress",
      "outputs": [
        {
          "internalType": "address",
          "name": "",
          "type": "address"
        }
      ],
      "stateMutability": "view",
      "type": "function"
    },
    {
      "inputs": [],
      "name": "getAllNames",
      "outputs": [
        {
          "internalType": "string[]",
          "name": "",
          "type": "string[]"
        }
      ],
      "stateMutability": "view",
      "type": "function"
    },
    {
      "inputs": [
        {
          "internalType": "uint256",
          "name": "tokenId",
          "type": "uint256"
        }
      ],
      "name": "getApproved",
      "outputs": [
        {
          "internalType": "address",
          "name": "",
          "type": "address"
        }
      ],
      "stateMutability": "view",
      "type": "function"
    },
    {
      "inputs": [
        {
          "internalType": "string",
          "name": "name",
          "type": "string"
        }
      ],
      "name": "getRecord",
      "outputs": [
        {
          "internalType": "string",
          "name": "",
          "type": "string"
        }
      ],
      "stateMutability": "view",
      "type": "function"
    },
    {
      "inputs": [
        {
          "internalType": "address",
          "name": "owner",
          "type": "address"
        },
        {
          "internalType": "address",
          "name": "operator",
          "type": "address"
        }
      ],
      "name": "isApprovedForAll",
      "outputs": [
        {
          "internalType": "bool",
          "name": "",
          "type": "bool"
        }
      ],
      "stateMutability": "view",
      "type": "function"
    },
    {
      "inputs": [],
      "name": "isOwner",
      "outputs": [
        {
          "internalType": "bool",
          "name": "",
          "type": "bool"
        }
      ],
      "stateMutability": "view",
      "type": "function"
    },
    {
      "inputs": [],
      "name": "name",
      "outputs": [
        {
          "internalType": "string",
          "name": "",
          "type": "string"
        }
      ],
      "stateMutability": "view",
      "type": "function"
    },
    {
      "inputs": [
        {
          "internalType": "uint256",
          "name": "",
          "type": "uint256"
        }
      ],
      "name": "names",
      "outputs": [
        {
          "internalType": "string",
          "name": "",
          "type": "string"
        }
      ],
      "stateMutability": "view",
      "type": "function"
    },
    {
      "inputs": [],
      "name": "owner",
      "outputs": [
        {
          "internalType": "address payable",
          "name": "",
          "type": "address"
        }
      ],
      "stateMutability": "view",
      "type": "function"
    },
    {
      "inputs": [
        {
          "internalType": "uint256",
          "name": "tokenId",
          "type": "uint256"
        }
      ],
      "name": "ownerOf",
      "outputs": [
        {
          "internalType": "address",
          "name": "",
          "type": "address"
        }
      ],
      "stateMutability": "view",
      "type": "function"
    },
    {
      "inputs": [
        {
          "internalType": "string",
          "name": "name",
          "type": "string"
        }
      ],
      "name": "price",
      "outputs": [
        {
          "internalType": "uint256",
          "name": "",
          "type": "uint256"
        }
      ],
      "stateMutability": "pure",
      "type": "function"
    },
    {
      "inputs": [
        {
          "internalType": "string",
          "name": "",
          "type": "string"
        }
      ],
      "name": "records",
      "outputs": [
        {
          "internalType": "string",
          "name": "",
          "type": "string"
        }
      ],
      "stateMutability": "view",
      "type": "function"
    },
    {
      "inputs": [
        {
          "internalType": "string",
          "name": "name",
          "type": "string"
        }
      ],
      "name": "register",
      "outputs": [],
      "stateMutability": "payable",
      "type": "function"
    },
    {
      "inputs": [
        {
          "internalType": "address",
          "name": "from",
          "type": "address"
        },
        {
          "internalType": "address",
          "name": "to",
          "type": "address"
        },
        {
          "internalType": "uint256",
          "name": "tokenId",
          "type": "uint256"
        }
      ],
      "name": "safeTransferFrom",
      "outputs": [],
      "stateMutability": "nonpayable",
      "type": "function"
    },
    {
      "inputs": [
        {
          "internalType": "address",
          "name": "from",
          "type": "address"
        },
        {
          "internalType": "address",
          "name": "to",
          "type": "address"
        },
        {
          "internalType": "uint256",
          "name": "tokenId",
          "type": "uint256"
        },
        {
          "internalType": "bytes",
          "name": "_data",
          "type": "bytes"
        }
      ],
      "name": "safeTransferFrom",
      "outputs": [],
      "stateMutability": "nonpayable",
      "type": "function"
    },
    {
      "inputs": [
        {
          "internalType": "address",
          "name": "operator",
          "type": "address"
        },
        {
          "internalType": "bool",
          "name": "approved",
          "type": "bool"
        }
      ],
      "name": "setApprovalForAll",
      "outputs": [],
      "stateMutability": "nonpayable",
      "type": "function"
    },
    {
      "inputs": [
        {
          "internalType": "string",
          "name": "name",
          "type": "string"
        },
        {
          "internalType": "string",
          "name": "record",
          "type": "string"
        }
      ],
      "name": "setRecord",
      "outputs": [],
      "stateMutability": "nonpayable",
      "type": "function"
    },
    {
      "inputs": [
        {
          "internalType": "bytes4",
          "name": "interfaceId",
          "type": "bytes4"
        }
      ],
      "name": "supportsInterface",
      "outputs": [
        {
          "internalType": "bool",
          "name": "",
          "type": "bool"
        }
      ],
      "stateMutability": "view",
      "type": "function"
    },
    {
      "inputs": [],
      "name": "symbol",
      "outputs": [
        {
          "internalType": "string",
          "name": "",
          "type": "string"
        }
      ],
      "stateMutability": "view",
      "type": "function"
    },
    {
      "inputs": [],
      "name": "tld",
      "outputs": [
        {
          "internalType": "string",
          "name": "",
          "type": "string"
        }
      ],
      "stateMutability": "view",
      "type": "function"
    },
    {
      "inputs": [
        {
          "internalType": "uint256",
          "name": "tokenId",
          "type": "uint256"
        }
      ],
      "name": "tokenURI",
      "outputs": [
        {
          "internalType": "string",
          "name": "",
          "type": "string"
        }
      ],
      "stateMutability": "view",
      "type": "function"
    },
    {
      "inputs": [
        {
          "internalType": "address",
          "name": "from",
          "type": "address"
        },
        {
          "internalType": "address",
          "name": "to",
          "type": "address"
        },
        {
          "internalType": "uint256",
          "name": "tokenId",
          "type": "uint256"
        }
      ],
      "name": "transferFrom",
      "outputs": [],
      "stateMutability": "nonpayable",
      "type": "function"
    },
    {
      "inputs": [
        {
          "internalType": "string",
          "name": "name",
          "type": "string"
        }
      ],
      "name": "valid",
      "outputs": [
        {
          "internalType": "bool",
          "name": "",
          "type": "bool"
        }
      ],
      "stateMutability": "pure",
      "type": "function"
    },
    {
      "inputs": [],
      "name": "withdraw",
      "outputs": [],
      "stateMutability": "nonpayable",
      "type": "function"
    }
  ],
  "bytecode": "0x6080604052604051806108a0016040528061086b81526020016200544a61086b91396009908051906020019062000038929190620002c8565b506040518060400160405280600d81526020017f3c2f746578743e3c2f7376673e00000000000000000000000000000000000000815250600a908051906020019062000086929190620002c8565b5060405162005cb538038062005cb58339818101604052810190620000ac9190620003ea565b6040518060400160405280601281526020017f4e696e6a61204e616d65205365727669636500000000000000000000000000008152506040518060400160405280600381526020017f4e4e530000000000000000000000000000000000000000000000000000000000815250816000908051906020019062000130929190620002c8565b50806001908051906020019062000149929190620002c8565b50505033600e60006101000a81548173ffffffffffffffffffffffffffffffffffffffff021916908373ffffffffffffffffffffffffffffffffffffffff1602179055508060089080519060200190620001a5929190620002c8565b50620001f26040518060400160405280601881526020017f2573206e616d652073657276696365206465706c6f796564000000000000000081525082620001f960201b62001cb81760201c565b5062000637565b6200029b82826040516024016200021292919062000470565b6040516020818303038152906040527f4b5c4277000000000000000000000000000000000000000000000000000000007bffffffffffffffffffffffffffffffffffffffffffffffffffffffff19166020820180517bffffffffffffffffffffffffffffffffffffffffffffffffffffffff83818316178352505050506200029f60201b60201c565b5050565b60008151905060006a636f6e736f6c652e6c6f679050602083016000808483855afa5050505050565b828054620002d6906200055c565b90600052602060002090601f016020900481019282620002fa576000855562000346565b82601f106200031557805160ff191683800117855562000346565b8280016001018555821562000346579182015b828111156200034557825182559160200191906001019062000328565b5b50905062000355919062000359565b5090565b5b80821115620003745760008160009055506001016200035a565b5090565b60006200038f6200038984620004d4565b620004ab565b905082815260208101848484011115620003a857600080fd5b620003b584828562000526565b509392505050565b600082601f830112620003cf57600080fd5b8151620003e184826020860162000378565b91505092915050565b600060208284031215620003fd57600080fd5b600082015167ffffffffffffffff8111156200041857600080fd5b6200042684828501620003bd565b91505092915050565b60006200043c826200050a565b62000448818562000515565b93506200045a81856020860162000526565b620004658162000626565b840191505092915050565b600060408201905081810360008301526200048c81856200042f565b90508181036020830152620004a281846200042f565b90509392505050565b6000620004b7620004ca565b9050620004c5828262000592565b919050565b6000604051905090565b600067ffffffffffffffff821115620004f257620004f1620005f7565b5b620004fd8262000626565b9050602081019050919050565b600081519050919050565b600082825260208201905092915050565b60005b838110156200054657808201518184015260208101905062000529565b8381111562000556576000848401525b50505050565b600060028204905060018216806200057557607f821691505b602082108114156200058c576200058b620005c8565b5b50919050565b6200059d8262000626565b810181811067ffffffffffffffff82111715620005bf57620005be620005f7565b5b80604052505050565b7f4e487b7100000000000000000000000000000000000000000000000000000000600052602260045260246000fd5b7f4e487b7100000000000000000000000000000000000000000000000000000000600052604160045260246000fd5b6000601f19601f8301169050919050565b614e0380620006476000396000f3fe60806040526004361061019c5760003560e01c806370a08231116100ec578063bf40fac11161008a578063e985e9c511610064578063e985e9c514610624578063f2c298be14610661578063fb825e5f1461067d578063fe2c6198146106a85761019c565b8063bf40fac114610581578063c1880a98146105be578063c87b56dd146105e75761019c565b806395d89b41116100c657806395d89b41146104c75780639791c097146104f2578063a22cb4651461052f578063b88d4fde146105585761019c565b806370a08231146104345780638da5cb5b146104715780638f32d59b1461049c5761019c565b8063264492351161015957806342842e0e1161013357806342842e0e146103545780634622ab031461037d578063541e771d146103ba5780636352211e146103f75761019c565b806326449235146102d55780632d551432146103125780633ccfd60b1461033d5761019c565b806301ffc9a7146101a157806306fdde03146101de578063081812fc14610209578063095ea7b31461024657806311dd88451461026f57806323b872dd146102ac575b600080fd5b3480156101ad57600080fd5b506101c860048036038101906101c39190613502565b6106e5565b6040516101d59190613e2c565b60405180910390f35b3480156101ea57600080fd5b506101f36107c7565b6040516102009190613e6b565b60405180910390f35b34801561021557600080fd5b50610230600480360381019061022b919061364f565b610859565b60405161023d9190613d88565b60405180910390f35b34801561025257600080fd5b5061026d600480360381019061026891906134c6565b6108de565b005b34801561027b57600080fd5b5061029660048036038101906102919190613554565b6109f6565b6040516102a39190613e6b565b60405180910390f35b3480156102b857600080fd5b506102d360048036038101906102ce91906133c0565b610aa9565b005b3480156102e157600080fd5b506102fc60048036038101906102f7919061360e565b610b09565b6040516103099190613d88565b60405180910390f35b34801561031e57600080fd5b50610327610b52565b6040516103349190613e6b565b60405180910390f35b34801561034957600080fd5b50610352610be0565b005b34801561036057600080fd5b5061037b600480360381019061037691906133c0565b610ca6565b005b34801561038957600080fd5b506103a4600480360381019061039f919061364f565b610cc6565b6040516103b19190613e6b565b60405180910390f35b3480156103c657600080fd5b506103e160048036038101906103dc919061360e565b610d66565b6040516103ee9190613e6b565b60405180910390f35b34801561040357600080fd5b5061041e6004803603810190610419919061364f565b610e1c565b60405161042b9190613d88565b60405180910390f35b34801561044057600080fd5b5061045b6004803603810190610456919061335b565b610ece565b60405161046891906141a3565b60405180910390f35b34801561047d57600080fd5b50610486610f86565b6040516104939190613da3565b60405180910390f35b3480156104a857600080fd5b506104b1610fac565b6040516104be9190613e2c565b60405180910390f35b3480156104d357600080fd5b506104dc611004565b6040516104e99190613e6b565b60405180910390f35b3480156104fe57600080fd5b5061051960048036038101906105149190613554565b611096565b6040516105269190613e2c565b60405180910390f35b34801561053b57600080fd5b506105566004803603810190610551919061348a565b61114a565b005b34801561056457600080fd5b5061057f600480360381019061057a919061340f565b611160565b005b34801561058d57600080fd5b506105a860048036038101906105a39190613554565b6111c2565b6040516105b59190613d88565b60405180910390f35b3480156105ca57600080fd5b506105e560048036038101906105e09190613599565b61120d565b005b3480156105f357600080fd5b5061060e6004803603810190610609919061364f565b6112e8565b60405161061b9190613e6b565b60405180910390f35b34801561063057600080fd5b5061064b60048036038101906106469190613384565b61143a565b6040516106589190613e2c565b60405180910390f35b61067b60048036038101906106769190613554565b6114ce565b005b34801561068957600080fd5b506106926119c5565b60405161069f9190613e0a565b60405180910390f35b3480156106b457600080fd5b506106cf60048036038101906106ca9190613554565b611c15565b6040516106dc91906141a3565b60405180910390f35b60007f80ac58cd000000000000000000000000000000000000000000000000000000007bffffffffffffffffffffffffffffffffffffffffffffffffffffffff1916827bffffffffffffffffffffffffffffffffffffffffffffffffffffffff191614806107b057507f5b5e139f000000000000000000000000000000000000000000000000000000007bffffffffffffffffffffffffffffffffffffffffffffffffffffffff1916827bffffffffffffffffffffffffffffffffffffffffffffffffffffffff1916145b806107c057506107bf82611d54565b5b9050919050565b6060600080546107d6906144cf565b80601f0160208091040260200160405190810160405280929190818152602001828054610802906144cf565b801561084f5780601f106108245761010080835404028352916020019161084f565b820191906000526020600020905b81548152906001019060200180831161083257829003601f168201915b5050505050905090565b600061086482611dbe565b6108a3576040517f08c379a000000000000000000000000000000000000000000000000000000000815260040161089a90614103565b60405180910390fd5b6004600083815260200190815260200160002060009054906101000a900473ffffffffffffffffffffffffffffffffffffffff169050919050565b60006108e982610e1c565b90508073ffffffffffffffffffffffffffffffffffffffff168373ffffffffffffffffffffffffffffffffffffffff16141561095a576040517f08c379a000000000000000000000000000000000000000000000000000000000815260040161095190614163565b60405180910390fd5b8073ffffffffffffffffffffffffffffffffffffffff16610979611e2a565b73ffffffffffffffffffffffffffffffffffffffff1614806109a857506109a7816109a2611e2a565b61143a565b5b6109e7576040517f08c379a00000000000000000000000000000000000000000000000000000000081526004016109de90614043565b60405180910390fd5b6109f18383611e32565b505050565b6060600c8383604051610a0a929190613c55565b90815260200160405180910390208054610a23906144cf565b80601f0160208091040260200160405190810160405280929190818152602001828054610a4f906144cf565b8015610a9c5780601f10610a7157610100808354040283529160200191610a9c565b820191906000526020600020905b815481529060010190602001808311610a7f57829003601f168201915b5050505050905092915050565b610aba610ab4611e2a565b82611eeb565b610af9576040517f08c379a0000000000000000000000000000000000000000000000000000000008152600401610af090614183565b60405180910390fd5b610b04838383611fc9565b505050565b600b818051602081018201805184825260208301602085012081835280955050505050506000915054906101000a900473ffffffffffffffffffffffffffffffffffffffff1681565b60088054610b5f906144cf565b80601f0160208091040260200160405190810160405280929190818152602001828054610b8b906144cf565b8015610bd85780601f10610bad57610100808354040283529160200191610bd8565b820191906000526020600020905b815481529060010190602001808311610bbb57829003601f168201915b505050505081565b610be8610fac565b610bf157600080fd5b600047905060003373ffffffffffffffffffffffffffffffffffffffff1682604051610c1c90613d73565b60006040518083038185875af1925050503d8060008114610c59576040519150601f19603f3d011682016040523d82523d6000602084013e610c5e565b606091505b5050905080610ca2576040517f08c379a0000000000000000000000000000000000000000000000000000000008152600401610c9990614003565b60405180910390fd5b5050565b610cc183838360405180602001604052806000815250611160565b505050565b600d6020528060005260406000206000915090508054610ce5906144cf565b80601f0160208091040260200160405190810160405280929190818152602001828054610d11906144cf565b8015610d5e5780601f10610d3357610100808354040283529160200191610d5e565b820191906000526020600020905b815481529060010190602001808311610d4157829003601f168201915b505050505081565b600c818051602081018201805184825260208301602085012081835280955050505050506000915090508054610d9b906144cf565b80601f0160208091040260200160405190810160405280929190818152602001828054610dc7906144cf565b8015610e145780601f10610de957610100808354040283529160200191610e14565b820191906000526020600020905b815481529060010190602001808311610df757829003601f168201915b505050505081565b6000806002600084815260200190815260200160002060009054906101000a900473ffffffffffffffffffffffffffffffffffffffff169050600073ffffffffffffffffffffffffffffffffffffffff168173ffffffffffffffffffffffffffffffffffffffff161415610ec5576040517f08c379a0000000000000000000000000000000000000000000000000000000008152600401610ebc90614083565b60405180910390fd5b80915050919050565b60008073ffffffffffffffffffffffffffffffffffffffff168273ffffffffffffffffffffffffffffffffffffffff161415610f3f576040517f08c379a0000000000000000000000000000000000000000000000000000000008152600401610f3690614063565b60405180910390fd5b600360008373ffffffffffffffffffffffffffffffffffffffff1673ffffffffffffffffffffffffffffffffffffffff168152602001908152602001600020549050919050565b600e60009054906101000a900473ffffffffffffffffffffffffffffffffffffffff1681565b6000600e60009054906101000a900473ffffffffffffffffffffffffffffffffffffffff1673ffffffffffffffffffffffffffffffffffffffff163373ffffffffffffffffffffffffffffffffffffffff1614905090565b606060018054611013906144cf565b80601f016020809104026020016040519081016040528092919081815260200182805461103f906144cf565b801561108c5780601f106110615761010080835404028352916020019161108c565b820191906000526020600020905b81548152906001019060200180831161106f57829003601f168201915b5050505050905090565b600060036110e784848080601f016020809104026020016040519081016040528093929190818152602001838380828437600081840152601f19601f82011690508083019250505050505050612230565b101580156111425750600a61113f84848080601f016020809104026020016040519081016040528093929190818152602001838380828437600081840152601f19601f82011690508083019250505050505050612230565b11155b905092915050565b61115c611155611e2a565b838361240b565b5050565b61117161116b611e2a565b83611eeb565b6111b0576040517f08c379a00000000000000000000000000000000000000000000000000000000081526004016111a790614183565b60405180910390fd5b6111bc84848484612578565b50505050565b6000600b83836040516111d6929190613c55565b908152602001604051809103902060009054906101000a900473ffffffffffffffffffffffffffffffffffffffff16905092915050565b600b848460405161121f929190613c55565b908152602001604051809103902060009054906101000a900473ffffffffffffffffffffffffffffffffffffffff1673ffffffffffffffffffffffffffffffffffffffff163373ffffffffffffffffffffffffffffffffffffffff16146112b2576040517f82b4290000000000000000000000000000000000000000000000000000000000815260040160405180910390fd5b8181600c86866040516112c6929190613c55565b908152602001604051809103902091906112e19291906130af565b5050505050565b60606112f382611dbe565b611332576040517f08c379a0000000000000000000000000000000000000000000000000000000008152600401611329906140e3565b60405180910390fd5b6000600660008481526020019081526020016000208054611352906144cf565b80601f016020809104026020016040519081016040528092919081815260200182805461137e906144cf565b80156113cb5780601f106113a0576101008083540402835291602001916113cb565b820191906000526020600020905b8154815290600101906020018083116113ae57829003601f168201915b5050505050905060006113dc6125d4565b90506000815114156113f2578192505050611435565b60008251111561142757808260405160200161140f929190613c9f565b60405160208183030381529060405292505050611435565b611430846125eb565b925050505b919050565b6000600560008473ffffffffffffffffffffffffffffffffffffffff1673ffffffffffffffffffffffffffffffffffffffff16815260200190815260200160002060008373ffffffffffffffffffffffffffffffffffffffff1673ffffffffffffffffffffffffffffffffffffffff16815260200190815260200160002060009054906101000a900460ff16905092915050565b600073ffffffffffffffffffffffffffffffffffffffff16600b83836040516114f8929190613c55565b908152602001604051809103902060009054906101000a900473ffffffffffffffffffffffffffffffffffffffff1673ffffffffffffffffffffffffffffffffffffffff1614611574576040517f3a81d6fc00000000000000000000000000000000000000000000000000000000815260040160405180910390fd5b61157e8282611096565b6115c15781816040517f7f19f48d0000000000000000000000000000000000000000000000000000000081526004016115b8929190613e47565b60405180910390fd5b600073ffffffffffffffffffffffffffffffffffffffff16600b83836040516115eb929190613c55565b908152602001604051809103902060009054906101000a900473ffffffffffffffffffffffffffffffffffffffff1673ffffffffffffffffffffffffffffffffffffffff161461163a57600080fd5b60006116468383611c15565b90508034101561168b576040517f08c379a000000000000000000000000000000000000000000000000000000000815260040161168290614143565b60405180910390fd5b6000838360086040516020016116a393929190613c6e565b60405160208183030381529060405290506000600982600a6040516020016116cd93929190613cc3565b604051602081830303815290604052905060006116ea6007612692565b9050600061173b87878080601f016020809104026020016040519081016040528093929190818152602001838380828437600081840152601f19601f82011690508083019250505050505050612230565b90506000611748826126a0565b905061183c604051806060016040528060318152602001614d246031913989898080601f016020809104026020016040519081016040528093929190818152602001838380828437600081840152601f19601f82011690508083019250505050505050600880546117b8906144cf565b80601f01602080910402602001604051908101604052809291908181526020018280546117e4906144cf565b80156118315780601f1061180657610100808354040283529160200191611831565b820191906000526020600020905b81548152906001019060200180831161181457829003601f168201915b50505050508661284d565b60006118728661184b876128ef565b8460405160200161185e93929190613cf4565b6040516020818303038152906040526128ef565b90506000816040516020016118879190613d51565b60405160208183030381529060405290506118b9604051806060016040528060398152602001614ceb60399139612aad565b6118f86040518060400160405280600e81526020017f46696e616c20746f6b656e55524900000000000000000000000000000000000081525082611cb8565b611919604051806060016040528060398152602001614d5560399139612aad565b6119233386612b46565b61192d8582612b64565b33600b8b8b604051611940929190613c55565b908152602001604051809103902060006101000a81548173ffffffffffffffffffffffffffffffffffffffff021916908373ffffffffffffffffffffffffffffffffffffffff1602179055508989600d600088815260200190815260200160002091906119ae9291906130af565b506119b96007612bd8565b50505050505050505050565b6060611a056040518060400160405280601f81526020017f47657474696e6720616c6c206e616d65732066726f6d20636f6e747261637400815250612aad565b6000611a116007612692565b67ffffffffffffffff811115611a50577f4e487b7100000000000000000000000000000000000000000000000000000000600052604160045260246000fd5b604051908082528060200260200182016040528015611a8357816020015b6060815260200190600190039081611a6e5790505b50905060005b611a936007612692565b811015611c0d57600d60008281526020019081526020016000208054611ab8906144cf565b80601f0160208091040260200160405190810160405280929190818152602001828054611ae4906144cf565b8015611b315780601f10611b0657610100808354040283529160200191611b31565b820191906000526020600020905b815481529060010190602001808311611b1457829003601f168201915b5050505050828281518110611b6f577f4e487b7100000000000000000000000000000000000000000000000000000000600052603260045260246000fd5b6020026020010181905250611bfa6040518060400160405280601781526020017f4e616d6520666f7220746f6b656e20256420697320257300000000000000000081525082848481518110611bed577f4e487b7100000000000000000000000000000000000000000000000000000000600052603260045260246000fd5b6020026020010151612bee565b8080611c0590614532565b915050611a89565b508091505090565b600080611c6584848080601f016020809104026020016040519081016040528093929190818152602001838380828437600081840152601f19601f82011690508083019250505050505050612230565b905060008111611c7457600080fd5b6003811415611c8d5766b1a2bc2ec50000915050611cb2565b6004811415611ca657666a94d74f430000915050611cb2565b662386f26fc100009150505b92915050565b611d508282604051602401611cce929190613e8d565b6040516020818303038152906040527f4b5c4277000000000000000000000000000000000000000000000000000000007bffffffffffffffffffffffffffffffffffffffffffffffffffffffff19166020820180517bffffffffffffffffffffffffffffffffffffffffffffffffffffffff8381831617835250505050612c8d565b5050565b60007f01ffc9a7000000000000000000000000000000000000000000000000000000007bffffffffffffffffffffffffffffffffffffffffffffffffffffffff1916827bffffffffffffffffffffffffffffffffffffffffffffffffffffffff1916149050919050565b60008073ffffffffffffffffffffffffffffffffffffffff166002600084815260200190815260200160002060009054906101000a900473ffffffffffffffffffffffffffffffffffffffff1673ffffffffffffffffffffffffffffffffffffffff1614159050919050565b600033905090565b816004600083815260200190815260200160002060006101000a81548173ffffffffffffffffffffffffffffffffffffffff021916908373ffffffffffffffffffffffffffffffffffffffff160217905550808273ffffffffffffffffffffffffffffffffffffffff16611ea583610e1c565b73ffffffffffffffffffffffffffffffffffffffff167f8c5be1e5ebec7d5bd14f71427d1e84f3dd0314c0f7b2291e5b200ac8c7c3b92560405160405180910390a45050565b6000611ef682611dbe565b611f35576040517f08c379a0000000000000000000000000000000000000000000000000000000008152600401611f2c90614023565b60405180910390fd5b6000611f4083610e1c565b90508073ffffffffffffffffffffffffffffffffffffffff168473ffffffffffffffffffffffffffffffffffffffff161480611f825750611f81818561143a565b5b80611fc057508373ffffffffffffffffffffffffffffffffffffffff16611fa884610859565b73ffffffffffffffffffffffffffffffffffffffff16145b91505092915050565b8273ffffffffffffffffffffffffffffffffffffffff16611fe982610e1c565b73ffffffffffffffffffffffffffffffffffffffff161461203f576040517f08c379a000000000000000000000000000000000000000000000000000000000815260040161203690613f83565b60405180910390fd5b600073ffffffffffffffffffffffffffffffffffffffff168273ffffffffffffffffffffffffffffffffffffffff1614156120af576040517f08c379a00000000000000000000000000000000000000000000000000000000081526004016120a690613fc3565b60405180910390fd5b6120ba838383612cb6565b6120c5600082611e32565b6001600360008573ffffffffffffffffffffffffffffffffffffffff1673ffffffffffffffffffffffffffffffffffffffff168152602001908152602001600020600082825461211591906143d3565b925050819055506001600360008473ffffffffffffffffffffffffffffffffffffffff1673ffffffffffffffffffffffffffffffffffffffff168152602001908152602001600020600082825461216c91906142f2565b92505081905550816002600083815260200190815260200160002060006101000a81548173ffffffffffffffffffffffffffffffffffffffff021916908373ffffffffffffffffffffffffffffffffffffffff160217905550808273ffffffffffffffffffffffffffffffffffffffff168473ffffffffffffffffffffffffffffffffffffffff167fddf252ad1be2c89b69c2b068fc378daa952ba7f163c4a11628f55a4df523b3ef60405160405180910390a461222b838383612cbb565b505050565b60008060008084519050600092505b80821015612400576000858381518110612282577f4e487b7100000000000000000000000000000000000000000000000000000000600052603260045260246000fd5b602001015160f81c60f81b9050608060f81b817effffffffffffffffffffffffffffffffffffffffffffffffffffffffffffff191610156122d1576001836122ca91906142f2565b92506123ec565b60e060f81b817effffffffffffffffffffffffffffffffffffffffffffffffffffffffffffff191610156123135760028361230c91906142f2565b92506123eb565b60f060f81b817effffffffffffffffffffffffffffffffffffffffffffffffffffffffffffff191610156123555760038361234e91906142f2565b92506123ea565b60f8801b817effffffffffffffffffffffffffffffffffffffffffffffffffffffffffffff191610156123965760048361238f91906142f2565b92506123e9565b60fc60f81b817effffffffffffffffffffffffffffffffffffffffffffffffffffffffffffff191610156123d8576005836123d191906142f2565b92506123e8565b6006836123e591906142f2565b92505b5b5b5b5b5082806123f890614532565b93505061223f565b829350505050919050565b8173ffffffffffffffffffffffffffffffffffffffff168373ffffffffffffffffffffffffffffffffffffffff16141561247a576040517f08c379a000000000000000000000000000000000000000000000000000000000815260040161247190613fe3565b60405180910390fd5b80600560008573ffffffffffffffffffffffffffffffffffffffff1673ffffffffffffffffffffffffffffffffffffffff16815260200190815260200160002060008473ffffffffffffffffffffffffffffffffffffffff1673ffffffffffffffffffffffffffffffffffffffff16815260200190815260200160002060006101000a81548160ff0219169083151502179055508173ffffffffffffffffffffffffffffffffffffffff168373ffffffffffffffffffffffffffffffffffffffff167f17307eab39ab6107e8899845ad3d59bd9653f200f220920489ca2b5937696c318360405161256b9190613e2c565b60405180910390a3505050565b612583848484611fc9565b61258f84848484612cc0565b6125ce576040517f08c379a00000000000000000000000000000000000000000000000000000000081526004016125c590613f63565b60405180910390fd5b50505050565b606060405180602001604052806000815250905090565b60606125f682611dbe565b612635576040517f08c379a000000000000000000000000000000000000000000000000000000000815260040161262c90614123565b60405180910390fd5b600061263f6125d4565b9050600081511161265f576040518060200160405280600081525061268a565b80612669846126a0565b60405160200161267a929190613c9f565b6040516020818303038152906040525b915050919050565b600081600001549050919050565b606060008214156126e8576040518060400160405280600181526020017f30000000000000000000000000000000000000000000000000000000000000008152509050612848565b600082905060005b6000821461271a57808061270390614532565b915050600a826127139190614348565b91506126f0565b60008167ffffffffffffffff81111561275c577f4e487b7100000000000000000000000000000000000000000000000000000000600052604160045260246000fd5b6040519080825280601f01601f19166020018201604052801561278e5781602001600182028036833780820191505090505b5090505b60008514612841576001826127a791906143d3565b9150600a856127b6919061457b565b60306127c291906142f2565b60f81b8183815181106127fe577f4e487b7100000000000000000000000000000000000000000000000000000000600052603260045260246000fd5b60200101907effffffffffffffffffffffffffffffffffffffffffffffffffffffffffffff1916908160001a905350600a8561283a9190614348565b9450612792565b8093505050505b919050565b6128e9848484846040516024016128679493929190613ec4565b6040516020818303038152906040527f9fd009f5000000000000000000000000000000000000000000000000000000007bffffffffffffffffffffffffffffffffffffffffffffffffffffffff19166020820180517bffffffffffffffffffffffffffffffffffffffffffffffffffffffff8381831617835250505050612c8d565b50505050565b606060008251905060008114156129185760405180602001604052806000815250915050612aa8565b6000600360028361292991906142f2565b6129339190614348565b600461293f9190614379565b9050600060208261295091906142f2565b67ffffffffffffffff81111561298f577f4e487b7100000000000000000000000000000000000000000000000000000000600052604160045260246000fd5b6040519080825280601f01601f1916602001820160405280156129c15781602001600182028036833780820191505090505b5090506000604051806060016040528060408152602001614d8e604091399050600181016020830160005b86811015612a655760038101905062ffffff818a015116603f8160121c168401518060081b905060ff603f83600c1c1686015116810190508060081b905060ff603f8360061c1686015116810190508060081b905060ff603f831686015116810190508060e01b905080845260048401935050506129ec565b506003860660018114612a7f5760028114612a8f57612a9a565b613d3d60f01b6002830352612a9a565b603d60f81b60018303525b508484525050819450505050505b919050565b612b4381604051602401612ac19190613e6b565b6040516020818303038152906040527f41304fac000000000000000000000000000000000000000000000000000000007bffffffffffffffffffffffffffffffffffffffffffffffffffffffff19166020820180517bffffffffffffffffffffffffffffffffffffffffffffffffffffffff8381831617835250505050612c8d565b50565b612b60828260405180602001604052806000815250612e57565b5050565b612b6d82611dbe565b612bac576040517f08c379a0000000000000000000000000000000000000000000000000000000008152600401612ba3906140a3565b60405180910390fd5b80600660008481526020019081526020016000209080519060200190612bd3929190613135565b505050565b6001816000016000828254019250508190555050565b612c88838383604051602401612c0693929190613f1e565b6040516020818303038152906040527fa3f5c739000000000000000000000000000000000000000000000000000000007bffffffffffffffffffffffffffffffffffffffffffffffffffffffff19166020820180517bffffffffffffffffffffffffffffffffffffffffffffffffffffffff8381831617835250505050612c8d565b505050565b60008151905060006a636f6e736f6c652e6c6f679050602083016000808483855afa5050505050565b505050565b505050565b6000612ce18473ffffffffffffffffffffffffffffffffffffffff16612eb2565b15612e4a578373ffffffffffffffffffffffffffffffffffffffff1663150b7a02612d0a611e2a565b8786866040518563ffffffff1660e01b8152600401612d2c9493929190613dbe565b602060405180830381600087803b158015612d4657600080fd5b505af1925050508015612d7757506040513d601f19601f82011682018060405250810190612d74919061352b565b60015b612dfa573d8060008114612da7576040519150601f19603f3d011682016040523d82523d6000602084013e612dac565b606091505b50600081511415612df2576040517f08c379a0000000000000000000000000000000000000000000000000000000008152600401612de990613f63565b60405180910390fd5b805181602001fd5b63150b7a0260e01b7bffffffffffffffffffffffffffffffffffffffffffffffffffffffff1916817bffffffffffffffffffffffffffffffffffffffffffffffffffffffff191614915050612e4f565b600190505b949350505050565b612e618383612ed5565b612e6e6000848484612cc0565b612ead576040517f08c379a0000000000000000000000000000000000000000000000000000000008152600401612ea490613f63565b60405180910390fd5b505050565b6000808273ffffffffffffffffffffffffffffffffffffffff163b119050919050565b600073ffffffffffffffffffffffffffffffffffffffff168273ffffffffffffffffffffffffffffffffffffffff161415612f45576040517f08c379a0000000000000000000000000000000000000000000000000000000008152600401612f3c906140c3565b60405180910390fd5b612f4e81611dbe565b15612f8e576040517f08c379a0000000000000000000000000000000000000000000000000000000008152600401612f8590613fa3565b60405180910390fd5b612f9a60008383612cb6565b6001600360008473ffffffffffffffffffffffffffffffffffffffff1673ffffffffffffffffffffffffffffffffffffffff1681526020019081526020016000206000828254612fea91906142f2565b92505081905550816002600083815260200190815260200160002060006101000a81548173ffffffffffffffffffffffffffffffffffffffff021916908373ffffffffffffffffffffffffffffffffffffffff160217905550808273ffffffffffffffffffffffffffffffffffffffff16600073ffffffffffffffffffffffffffffffffffffffff167fddf252ad1be2c89b69c2b068fc378daa952ba7f163c4a11628f55a4df523b3ef60405160405180910390a46130ab60008383612cbb565b5050565b8280546130bb906144cf565b90600052602060002090601f0160209004810192826130dd5760008555613124565b82601f106130f657803560ff1916838001178555613124565b82800160010185558215613124579182015b82811115613123578235825591602001919060010190613108565b5b50905061313191906131bb565b5090565b828054613141906144cf565b90600052602060002090601f01602090048101928261316357600085556131aa565b82601f1061317c57805160ff19168380011785556131aa565b828001600101855582156131aa579182015b828111156131a957825182559160200191906001019061318e565b5b5090506131b791906131bb565b5090565b5b808211156131d45760008160009055506001016131bc565b5090565b60006131eb6131e6846141e3565b6141be565b90508281526020810184848401111561320357600080fd5b61320e84828561448d565b509392505050565b600061322961322484614214565b6141be565b90508281526020810184848401111561324157600080fd5b61324c84828561448d565b509392505050565b60008135905061326381614c8e565b92915050565b60008135905061327881614ca5565b92915050565b60008135905061328d81614cbc565b92915050565b6000815190506132a281614cbc565b92915050565b600082601f8301126132b957600080fd5b81356132c98482602086016131d8565b91505092915050565b60008083601f8401126132e457600080fd5b8235905067ffffffffffffffff8111156132fd57600080fd5b60208301915083600182028301111561331557600080fd5b9250929050565b600082601f83011261332d57600080fd5b813561333d848260208601613216565b91505092915050565b60008135905061335581614cd3565b92915050565b60006020828403121561336d57600080fd5b600061337b84828501613254565b91505092915050565b6000806040838503121561339757600080fd5b60006133a585828601613254565b92505060206133b685828601613254565b9150509250929050565b6000806000606084860312156133d557600080fd5b60006133e386828701613254565b93505060206133f486828701613254565b925050604061340586828701613346565b9150509250925092565b6000806000806080858703121561342557600080fd5b600061343387828801613254565b945050602061344487828801613254565b935050604061345587828801613346565b925050606085013567ffffffffffffffff81111561347257600080fd5b61347e878288016132a8565b91505092959194509250565b6000806040838503121561349d57600080fd5b60006134ab85828601613254565b92505060206134bc85828601613269565b9150509250929050565b600080604083850312156134d957600080fd5b60006134e785828601613254565b92505060206134f885828601613346565b9150509250929050565b60006020828403121561351457600080fd5b60006135228482850161327e565b91505092915050565b60006020828403121561353d57600080fd5b600061354b84828501613293565b91505092915050565b6000806020838503121561356757600080fd5b600083013567ffffffffffffffff81111561358157600080fd5b61358d858286016132d2565b92509250509250929050565b600080600080604085870312156135af57600080fd5b600085013567ffffffffffffffff8111156135c957600080fd5b6135d5878288016132d2565b9450945050602085013567ffffffffffffffff8111156135f457600080fd5b613600878288016132d2565b925092505092959194509250565b60006020828403121561362057600080fd5b600082013567ffffffffffffffff81111561363a57600080fd5b6136468482850161331c565b91505092915050565b60006020828403121561366157600080fd5b600061366f84828501613346565b91505092915050565b600061368483836137b9565b905092915050565b61369581614419565b82525050565b6136a481614407565b82525050565b60006136b58261426a565b6136bf8185614298565b9350836020820285016136d185614245565b8060005b8581101561370d57848403895281516136ee8582613678565b94506136f98361428b565b925060208a019950506001810190506136d5565b50829750879550505050505092915050565b6137288161442b565b82525050565b600061373982614275565b61374381856142a9565b935061375381856020860161449c565b61375c81614668565b840191505092915050565b600061377383856142d6565b935061378083858461448d565b61378983614668565b840190509392505050565b60006137a083856142e7565b93506137ad83858461448d565b82840190509392505050565b60006137c482614280565b6137ce81856142c5565b93506137de81856020860161449c565b6137e781614668565b840191505092915050565b60006137fd82614280565b61380781856142d6565b935061381781856020860161449c565b61382081614668565b840191505092915050565b600061383682614280565b61384081856142e7565b935061385081856020860161449c565b80840191505092915050565b60008154613869816144cf565b61387381866142e7565b9450600182166000811461388e576001811461389f576138d2565b60ff198316865281860193506138d2565b6138a885614255565b60005b838110156138ca578154818901526001820191506020810190506138ab565b838801955050505b50505092915050565b60006138e86032836142d6565b91506138f382614679565b604082019050919050565b600061390b6025836142d6565b9150613916826146c8565b604082019050919050565b600061392e601c836142d6565b915061393982614717565b602082019050919050565b6000613951605c836142e7565b915061395c82614740565b605c82019050919050565b60006139746024836142d6565b915061397f826147b5565b604082019050919050565b60006139976019836142d6565b91506139a282614804565b602082019050919050565b60006139ba6018836142d6565b91506139c58261482d565b602082019050919050565b60006139dd602c836142d6565b91506139e882614856565b604082019050919050565b6000613a006038836142d6565b9150613a0b826148a5565b604082019050919050565b6000613a236001836142e7565b9150613a2e826148f4565b600182019050919050565b6000613a46602a836142d6565b9150613a518261491d565b604082019050919050565b6000613a696029836142d6565b9150613a748261496c565b604082019050919050565b6000613a8c602e836142d6565b9150613a97826149bb565b604082019050919050565b6000613aaf6002836142e7565b9150613aba82614a0a565b600282019050919050565b6000613ad26020836142d6565b9150613add82614a33565b602082019050919050565b6000613af56031836142d6565b9150613b0082614a5c565b604082019050919050565b6000613b18602c836142d6565b9150613b2382614aab565b604082019050919050565b6000613b3b602f836142d6565b9150613b4682614afa565b604082019050919050565b6000613b5e6015836142d6565b9150613b6982614b49565b602082019050919050565b6000613b81600a836142e7565b9150613b8c82614b72565b600a82019050919050565b6000613ba46021836142d6565b9150613baf82614b9b565b604082019050919050565b6000613bc7601d836142e7565b9150613bd282614bea565b601d82019050919050565b6000613bea600c836142e7565b9150613bf582614c13565b600c82019050919050565b6000613c0d6000836142ba565b9150613c1882614c3c565b600082019050919050565b6000613c306031836142d6565b9150613c3b82614c3f565b604082019050919050565b613c4f81614483565b82525050565b6000613c62828486613794565b91508190509392505050565b6000613c7b828587613794565b9150613c8682613a16565b9150613c92828461385c565b9150819050949350505050565b6000613cab828561382b565b9150613cb7828461382b565b91508190509392505050565b6000613ccf828661385c565b9150613cdb828561382b565b9150613ce7828461385c565b9150819050949350505050565b6000613cff82613b74565b9150613d0b828661382b565b9150613d1682613944565b9150613d22828561382b565b9150613d2d82613bdd565b9150613d39828461382b565b9150613d4482613aa2565b9150819050949350505050565b6000613d5c82613bba565b9150613d68828461382b565b915081905092915050565b6000613d7e82613c00565b9150819050919050565b6000602082019050613d9d600083018461369b565b92915050565b6000602082019050613db8600083018461368c565b92915050565b6000608082019050613dd3600083018761369b565b613de0602083018661369b565b613ded6040830185613c46565b8181036060830152613dff818461372e565b905095945050505050565b60006020820190508181036000830152613e2481846136aa565b905092915050565b6000602082019050613e41600083018461371f565b92915050565b60006020820190508181036000830152613e62818486613767565b90509392505050565b60006020820190508181036000830152613e8581846137f2565b905092915050565b60006040820190508181036000830152613ea781856137f2565b90508181036020830152613ebb81846137f2565b90509392505050565b60006080820190508181036000830152613ede81876137f2565b90508181036020830152613ef281866137f2565b90508181036040830152613f0681856137f2565b9050613f156060830184613c46565b95945050505050565b60006060820190508181036000830152613f3881866137f2565b9050613f476020830185613c46565b8181036040830152613f5981846137f2565b9050949350505050565b60006020820190508181036000830152613f7c816138db565b9050919050565b60006020820190508181036000830152613f9c816138fe565b9050919050565b60006020820190508181036000830152613fbc81613921565b9050919050565b60006020820190508181036000830152613fdc81613967565b9050919050565b60006020820190508181036000830152613ffc8161398a565b9050919050565b6000602082019050818103600083015261401c816139ad565b9050919050565b6000602082019050818103600083015261403c816139d0565b9050919050565b6000602082019050818103600083015261405c816139f3565b9050919050565b6000602082019050818103600083015261407c81613a39565b9050919050565b6000602082019050818103600083015261409c81613a5c565b9050919050565b600060208201905081810360008301526140bc81613a7f565b9050919050565b600060208201905081810360008301526140dc81613ac5565b9050919050565b600060208201905081810360008301526140fc81613ae8565b9050919050565b6000602082019050818103600083015261411c81613b0b565b9050919050565b6000602082019050818103600083015261413c81613b2e565b9050919050565b6000602082019050818103600083015261415c81613b51565b9050919050565b6000602082019050818103600083015261417c81613b97565b9050919050565b6000602082019050818103600083015261419c81613c23565b9050919050565b60006020820190506141b86000830184613c46565b92915050565b60006141c86141d9565b90506141d48282614501565b919050565b6000604051905090565b600067ffffffffffffffff8211156141fe576141fd614639565b5b61420782614668565b9050602081019050919050565b600067ffffffffffffffff82111561422f5761422e614639565b5b61423882614668565b9050602081019050919050565b6000819050602082019050919050565b60008190508160005260206000209050919050565b600081519050919050565b600081519050919050565b600081519050919050565b6000602082019050919050565b600082825260208201905092915050565b600082825260208201905092915050565b600081905092915050565b600082825260208201905092915050565b600082825260208201905092915050565b600081905092915050565b60006142fd82614483565b915061430883614483565b9250827fffffffffffffffffffffffffffffffffffffffffffffffffffffffffffffffff0382111561433d5761433c6145ac565b5b828201905092915050565b600061435382614483565b915061435e83614483565b92508261436e5761436d6145db565b5b828204905092915050565b600061438482614483565b915061438f83614483565b9250817fffffffffffffffffffffffffffffffffffffffffffffffffffffffffffffffff04831182151516156143c8576143c76145ac565b5b828202905092915050565b60006143de82614483565b91506143e983614483565b9250828210156143fc576143fb6145ac565b5b828203905092915050565b600061441282614463565b9050919050565b600061442482614463565b9050919050565b60008115159050919050565b60007fffffffff0000000000000000000000000000000000000000000000000000000082169050919050565b600073ffffffffffffffffffffffffffffffffffffffff82169050919050565b6000819050919050565b82818337600083830152505050565b60005b838110156144ba57808201518184015260208101905061449f565b838111156144c9576000848401525b50505050565b600060028204905060018216806144e757607f821691505b602082108114156144fb576144fa61460a565b5b50919050565b61450a82614668565b810181811067ffffffffffffffff8211171561452957614528614639565b5b80604052505050565b600061453d82614483565b91507fffffffffffffffffffffffffffffffffffffffffffffffffffffffffffffffff8214156145705761456f6145ac565b5b600182019050919050565b600061458682614483565b915061459183614483565b9250826145a1576145a06145db565b5b828206905092915050565b7f4e487b7100000000000000000000000000000000000000000000000000000000600052601160045260246000fd5b7f4e487b7100000000000000000000000000000000000000000000000000000000600052601260045260246000fd5b7f4e487b7100000000000000000000000000000000000000000000000000000000600052602260045260246000fd5b7f4e487b7100000000000000000000000000000000000000000000000000000000600052604160045260246000fd5b6000601f19601f8301169050919050565b7f4552433732313a207472616e7366657220746f206e6f6e20455243373231526560008201527f63656976657220696d706c656d656e7465720000000000000000000000000000602082015250565b7f4552433732313a207472616e736665722066726f6d20696e636f72726563742060008201527f6f776e6572000000000000000000000000000000000000000000000000000000602082015250565b7f4552433732313a20746f6b656e20616c7265616479206d696e74656400000000600082015250565b7f222c20226465736372697074696f6e223a20224120646f6d61696e206f6e207460008201527f6865204e696e6a61206e616d652073657276696365222c2022696d616765223a60208201527f2022646174613a696d6167652f7376672b786d6c3b6261736536342c00000000604082015250565b7f4552433732313a207472616e7366657220746f20746865207a65726f2061646460008201527f7265737300000000000000000000000000000000000000000000000000000000602082015250565b7f4552433732313a20617070726f766520746f2063616c6c657200000000000000600082015250565b7f4661696c656420746f207769746864726177204d617469630000000000000000600082015250565b7f4552433732313a206f70657261746f7220717565727920666f72206e6f6e657860008201527f697374656e7420746f6b656e0000000000000000000000000000000000000000602082015250565b7f4552433732313a20617070726f76652063616c6c6572206973206e6f74206f7760008201527f6e6572206e6f7220617070726f76656420666f7220616c6c0000000000000000602082015250565b7f2e00000000000000000000000000000000000000000000000000000000000000600082015250565b7f4552433732313a2062616c616e636520717565727920666f7220746865207a6560008201527f726f206164647265737300000000000000000000000000000000000000000000602082015250565b7f4552433732313a206f776e657220717565727920666f72206e6f6e657869737460008201527f656e7420746f6b656e0000000000000000000000000000000000000000000000602082015250565b7f45524337323155524953746f726167653a2055524920736574206f66206e6f6e60008201527f6578697374656e7420746f6b656e000000000000000000000000000000000000602082015250565b7f227d000000000000000000000000000000000000000000000000000000000000600082015250565b7f4552433732313a206d696e7420746f20746865207a65726f2061646472657373600082015250565b7f45524337323155524953746f726167653a2055524920717565727920666f722060008201527f6e6f6e6578697374656e7420746f6b656e000000000000000000000000000000602082015250565b7f4552433732313a20617070726f76656420717565727920666f72206e6f6e657860008201527f697374656e7420746f6b656e0000000000000000000000000000000000000000602082015250565b7f4552433732314d657461646174613a2055524920717565727920666f72206e6f60008201527f6e6578697374656e7420746f6b656e0000000000000000000000000000000000602082015250565b7f4e6f7420656e6f756768204d6174696320706169640000000000000000000000600082015250565b7f7b226e616d65223a202200000000000000000000000000000000000000000000600082015250565b7f4552433732313a20617070726f76616c20746f2063757272656e74206f776e6560008201527f7200000000000000000000000000000000000000000000000000000000000000602082015250565b7f646174613a6170706c69636174696f6e2f6a736f6e3b6261736536342c000000600082015250565b7f222c226c656e677468223a220000000000000000000000000000000000000000600082015250565b50565b7f4552433732313a207472616e736665722063616c6c6572206973206e6f74206f60008201527f776e6572206e6f7220617070726f766564000000000000000000000000000000602082015250565b614c9781614407565b8114614ca257600080fd5b50565b614cae8161442b565b8114614cb957600080fd5b50565b614cc581614437565b8114614cd057600080fd5b50565b614cdc81614483565b8114614ce757600080fd5b5056fe0a2d2d2d2d2d2d2d2d2d2d2d2d2d2d2d2d2d2d2d2d2d2d2d2d2d2d2d2d2d2d2d2d2d2d2d2d2d2d2d2d2d2d2d2d2d2d2d2d2d2d2d2d2d2d2d2d5265676973746572696e672025732e2573206f6e2074686520636f6e7472616374207769746820746f6b656e49442025642d2d2d2d2d2d2d2d2d2d2d2d2d2d2d2d2d2d2d2d2d2d2d2d2d2d2d2d2d2d2d2d2d2d2d2d2d2d2d2d2d2d2d2d2d2d2d2d2d2d2d2d2d2d2d2d0a4142434445464748494a4b4c4d4e4f505152535455565758595a6162636465666768696a6b6c6d6e6f707172737475767778797a303132333435363738392b2fa2646970667358221220d192f5f2d43778269fa6cdde77bf247f22c41e2f70fb49b42b290eef57722c4264736f6c634300080400333c73766720786d6c6e733d22687474703a2f2f7777772e77332e6f72672f323030302f737667222077696474683d2232373022206865696768743d22323730222066696c6c3d226e6f6e65223e3c706174682066696c6c3d2275726c282342292220643d224d302030683237307632373048307a222f3e3c646566733e3c66696c7465722069643d22412220636f6c6f722d696e746572706f6c6174696f6e2d66696c746572733d2273524742222066696c746572556e6974733d227573657253706163654f6e55736522206865696768743d22323730222077696474683d22323730223e3c666544726f70536861646f772064783d2230222064793d22312220737464446576696174696f6e3d22322220666c6f6f642d6f7061636974793d222e323235222077696474683d223230302522206865696768743d2232303025222f3e3c2f66696c7465723e3c2f646566733e3c7061746820643d224d37322e3836332034322e393439632d2e3636382d2e3338372d312e3432362d2e35392d322e3139372d2e3539732d312e3532392e3230342d322e3139372e35396c2d31302e30383120362e3033322d362e383520332e3933342d31302e30383120362e303332632d2e3636382e3338372d312e3432362e35392d322e3139372e3539732d312e3532392d2e3230342d322e3139372d2e35396c2d382e3031332d342e37323161342e353220342e35322030203020312d312e3538392d312e363136632d2e3338342d2e3636352d2e3539342d312e3431382d2e3630382d322e313837762d392e3331632d2e3031332d2e3737352e3138352d312e3533382e3537322d322e32303861342e323520342e323520302030203120312e3632352d312e3539356c372e3838342d342e3539632e3636382d2e33383720312e3432362d2e353920322e3139372d2e353973312e3532392e32303420322e3139372e35396c372e38383420342e353961342e353220342e353220302030203120312e35383920312e363136632e3338342e3636352e35393420312e3431382e36303820322e31383776362e3033326c362e38352d342e303635762d362e303332632e3031332d2e3737352d2e3138352d312e3533382d2e3537322d322e32303861342e323520342e32352030203020302d312e3632352d312e3539354c34312e3435362032342e3539632d2e3636382d2e3338372d312e3432362d2e35392d322e3139372d2e3539732d312e3532392e3230342d322e3139372e35396c2d31342e38363420382e36353561342e323520342e32352030203020302d312e36323520312e353935632d2e3338372e36372d2e35383520312e3433342d2e35373220322e3230387631372e343431632d2e3031332e3737352e31383520312e3533382e35373220322e32303861342e323520342e323520302030203020312e36323520312e3539356c31342e38363420382e363535632e3636382e33383720312e3432362e353920322e3139372e353973312e3532392d2e32303420322e3139372d2e35396c31302e3038312d352e39303120362e38352d342e3036352031302e3038312d352e393031632e3636382d2e33383720312e3432362d2e353920322e3139372d2e353973312e3532392e32303420322e3139372e35396c372e38383420342e353961342e353220342e353220302030203120312e35383920312e363136632e3338342e3636352e35393420312e3431382e36303820322e31383776392e333131632e3031332e3737352d2e31383520312e3533382d2e35373220322e32303861342e323520342e32352030203020312d312e36323520312e3539356c2d372e38383420342e373231632d2e3636382e3338372d312e3432362e35392d322e3139372e3539732d312e3532392d2e3230342d322e3139372d2e35396c2d372e3838342d342e353961342e353220342e35322030203020312d312e3538392d312e363136632d2e3338352d2e3636352d2e3539342d312e3431382d2e3630382d322e313837762d362e3033326c2d362e383520342e30363576362e303332632d2e3031332e3737352e31383520312e3533382e35373220322e32303861342e323520342e323520302030203020312e36323520312e3539356c31342e38363420382e363535632e3636382e33383720312e3432362e353920322e3139372e353973312e3532392d2e32303420322e3139372d2e35396c31342e3836342d382e363535632e3635372d2e33393420312e3230342d2e393520312e3538392d312e363136732e3539342d312e3431382e3630392d322e3138375635352e353338632e3031332d2e3737352d2e3138352d312e3533382d2e3537322d322e32303861342e323520342e32352030203020302d312e3632352d312e3539356c2d31342e3939332d382e3738367a222066696c6c3d2223666666222f3e3c646566733e3c6c696e6561724772616469656e742069643d2242222078313d2230222079313d2230222078323d22323730222079323d2232373022206772616469656e74556e6974733d227573657253706163654f6e557365223e3c73746f702073746f702d636f6c6f723d2223636235656565222f3e3c73746f70206f66667365743d2231222073746f702d636f6c6f723d2223306364376534222073746f702d6f7061636974793d222e3939222f3e3c2f6c696e6561724772616469656e743e3c2f646566733e3c7465787420783d2233322e352220793d223233312220666f6e742d73697a653d223237222066696c6c3d2223666666222066696c7465723d2275726c282341292220666f6e742d66616d696c793d22506c7573204a616b617274612053616e732c44656a6156752053616e732c4e6f746f20436f6c6f7220456d6f6a692c4170706c6520436f6c6f7220456d6f6a692c73616e732d73657269662220666f6e742d7765696768743d22626f6c64223e",
  "linkReferences": {},
  "deployedLinkReferences": {}
}